S0130000736572766F2061746D656C2E73726563AF
S11300000C9434000C943E000C943E000C943E007E
S11300100C943E000C943E000C943E000C943E0064
S11300200C943E000C943E000C943E000C943E0054
S11300300C943E000C943E000C943E000C943E0044
S11300400C943E000C943E000C943E000C943E0034
S11300500C943E000C943E000C943E000C943E0024
S11300600C943E000C943E0011241FBECFEFD8E048
S1130070DEBFCDBF0E9440000C947E000C940000B3
S11300808FEF84B985B185B982E8809380008AE1D5
S11300908093810010928200109285001092840057
S11300A0109289001092880010928B0010928A009E
S11300B08FEF9BE6909387008093860010926F00E9
S11300C016BAE8E8F0E02BE836E080EA9FE03183F6
S11300D020834FEF57EA61E6415050406040E1F71A
S11300E000C00000918380834FEF57EA61E64150DE
S11300F050406040E1F700C00000E9CFF894FFCF22
S9030000FC
