:100000000C9434000C943E000C943E000C943E0082
:100010000C943E000C943E000C943E000C943E0068
:100020000C943E000C943E000C943E000C943E0058
:100030000C943E000C943E000C943E000C943E0048
:100040000C943E000C943E000C943E000C943E0038
:100050000C943E000C943E000C943E000C943E0028
:100060000C943E000C943E0011241FBECFEFD8E04C
:10007000DEBFCDBF0E9440000C942B020C94000008
:10008000569A17B817BC84B5836884BD81E085BDD6
:1000900087E880937A0080E480937C00CAE7D0E010
:1000A0000F2EF8E7EF2EF12CF02D09E710E08881F4
:1000B00080648883888184FFFACF88818061888307
:1000C000F7016081F801808170E0782BCB01880F07
:1000D000991F880F991F680F791F772314F46150B7
:1000E0007C4F672F770F770B65956595072E000C72
:1000F000880B990B0E94320120E030E04FE753E477
:100100000E94BE0120E030E040EA50E40E948F00EF
:100110000E94010167BD888184FDCFCFC8CF0E94B6
:10012000A3000C9484010E947D0158F00E94760186
:1001300040F029F45F3F29F00C946D0151110C94AB
:10014000B8010C9473010E94950168F39923B1F3EF
:10015000552391F3951B550BBB27AA2762177307ED
:10016000840738F09F5F5F4F220F331F441FAA1F81
:10017000A9F335D00E2E3AF0E0E832D0915050403D
:10018000E695001CCAF72BD0FE2F29D0660F771FEB
:10019000881FBB1F261737074807AB07B0E809F0D1
:1001A000BB0B802DBF01FF2793585F4F3AF09E3F56
:1001B000510578F00C946D010C94B8015F3FE4F3A5
:1001C000983ED4F3869577956795B795F7959F5F99
:1001D000C9F7880F911D9695879597F90895E1E0E5
:1001E000660F771F881FBB1F621773078407BA0744
:1001F00020F0621B730B840BBA0BEE1F88F7E0959F
:1002000008950E949D0188F09F5798F0B92F992773
:10021000B751B0F0E1F0660F771F881F991F1AF0F1
:10022000BA95C9F714C0B13091F00E94B701B1E09E
:1002300008950C94B701672F782F8827B85F39F09D
:10024000B93FCCF3869577956795B395D9F73EF48A
:1002500090958095709561957F4F8F4F9F4F089532
:10026000E89409C097FB3EF4909580957095619550
:100270007F4F8F4F9F4F9923A9F0F92F96E9BB2706
:100280009395F695879577956795B795F111F8CF82
:10029000FAF4BB0F11F460FF1BC06F5F7F4F8F4FED
:1002A0009F4F16C0882311F096E911C0772321F0E3
:1002B0009EE8872F762F05C0662371F096E8862F7B
:1002C00070E060E02AF09A95660F771F881FDAF7D2
:1002D000880F9695879597F9089597F99F6780E815
:1002E00070E060E008959FEF80EC089500240A9488
:1002F0001616170618060906089500240A94121601
:100300001306140605060895092E0394000C11F433
:10031000882352F0BB0F40F4BF2B11F460FF04C0E0
:100320006F5F7F4F8F4F9F4F089557FD9058440F39
:10033000551F59F05F3F71F04795880F97FB991F44
:1003400061F09F3F79F08795089512161306140601
:10035000551FF2CF4695F1DF08C01616170618068E
:10036000991FF1CF86957105610508940895E89469
:10037000BB2766277727CB0197F908950E94D10103
:100380000C9484010E94760138F00E947D0120F0D7
:10039000952311F00C946D010C94730111240C94AD
:1003A000B8010E94950170F3959FC1F3950F50E03D
:1003B000551F629FF001729FBB27F00DB11D639F17
:1003C000AA27F00DB11DAA1F649F6627B00DA11DBD
:1003D000661F829F2227B00DA11D621F739FB00D63
:1003E000A11D621F839FA00D611D221F749F3327D3
:1003F000A00D611D231F849F600D211D822F762F6C
:100400006A2F11249F5750409AF0F1F088234AF048
:10041000EE0FFF1FBB1F661F771F881F91505040B4
:10042000A9F79E3F510580F00C946D010C94B80122
:100430005F3FE4F3983ED4F3869577956795B7953B
:10044000F795E7959F5FC1F7FE2B880F911D969555
:0A045000879597F90895F894FFCFFF
:00000001FF
