:100000000C9434000C943E000C943E000C943E0082
:100010000C943E000C943E000C943E000C943E0068
:100020000C943E000C943E000C943E000C943E0058
:100030000C943E000C943E000C943E000C943E0048
:100040000C943E000C943E000C943E000C943E0038
:100050000C943E000C943E000C943E000C943E0028
:100060000C943E000C943E0011241FBECFEFD8E04C
:10007000DEBFCDBF0E947B000C946D010C9400008C
:10008000ECE7F0E080818F7D8083808180648083D5
:1000900080818F778083EAE7F0E0808181608083D0
:1000A0008081826080838081846080830895ECE712
:1000B000F0E09081907F90839081892B8083EAE7A4
:1000C000F0E080818068808383E08A95F1F700000A
:1000D000808180648083808184FFFDCFEAE7F0E047
:1000E00080818061808380818F7780838091780098
:1000F0009091790008958FEF84B91AB8399A0E94C7
:10010000400082E8809380008AE180938100109211
:100110008200109285001092840010928900109243
:1001200088008FEF9BE69093870080938600109263
:100130006F0016BA6894DD24D2F8C8E8D0E00F2E1C
:10014000F0EAEF2EFFE0FF2EF02D0BE816E04899C5
:10015000D5B849992A984A9B0DC0F982E8822FEFB9
:1001600083E294EF215080409040E1F700C000000E
:100170001983088380E090E00E945700BC01660F5D
:10018000771F660F771F860F971F992314F48150EE
:100190009C4FBC01672F770F770B65956595072EF0
:1001A000000C880B990B0E94090120E030E040E030
:1001B00050E40E944401181614F4419A01C0419879
:1001C00082E090E00E945700BC01660F771F660F27
:1001D000771F860F971F992314F481509C4FBC0101
:1001E000672F770F770B65956595072E000C880BA9
:1001F000990B0E94090120E030E040E050E40E94A9
:100200004401181614F42B9AA2CF2B98A0CFE8948F
:1002100009C097FB3EF490958095709561957F4F4E
:100220008F4F9F4F9923A9F0F92F96E9BB279395FC
:10023000F695879577956795B795F111F8CFFAF40C
:10024000BB0F11F460FF1BC06F5F7F4F8F4F9F4F3D
:1002500016C0882311F096E911C0772321F09EE89B
:10026000872F762F05C0662371F096E8862F70E001
:1002700060E02AF09A95660F771F881FDAF7880FDB
:100280009695879597F908950E94490108F48FEF94
:100290000895990F0008550FAA0BE0E8FEEF161617
:1002A0001706E807F907C0F012161306E407F5076A
:1002B00098F0621B730B840B950B39F40A2661F0DE
:1002C000232B242B252B21F408950A2609F4A14081
:0E02D000A6958FEF811D811D0895F894FFCF34
:00000001FF
