:100000000C9434000C943E000C943E000C943E0082
:100010000C943E000C943E000C943E000C943E0068
:100020000C943E000C943E000C943E000C943E0058
:100030000C943E000C943E000C943E000C943E0048
:100040000C943E000C943E000C943E000C943E0038
:100050000C943E000C943E000C943E000C943E0028
:100060000C943E000C943E0011241FBECFEFD8E04C
:10007000DEBFCDBF0E9440000C94EC000C94000049
:100080008FEF84B91AB887E880937A0080E4809370
:100090007C00CAE7D0E00F2EF8E7EF2EF12CF02D10
:1000A00009E710E0DD24D3948881806488832AC026
:1000B000888180618883F7016081F801808170E028
:1000C000782BCB01880F991F880F991F680F791F14
:1000D000772314F461507C4F672F770F770B65956A
:1000E0006595072E000C880B990B0E94880020E074
:1000F00030E040E050E40E94C300181614F4D5B874
:1001000001C015B8888184FDD3CFCECFE89409C053
:1001100097FB3EF490958095709561957F4F8F4F3A
:100120009F4F9923A9F0F92F96E9BB279395F69550
:10013000879577956795B795F111F8CFFAF4BB0FCE
:1001400011F460FF1BC06F5F7F4F8F4F9F4F16C032
:10015000882311F096E911C0772321F09EE8872FBC
:10016000762F05C0662371F096E8862F70E060E078
:100170002AF09A95660F771F881FDAF7880F9695F1
:10018000879597F908950E94C80008F48FEF0895A5
:10019000990F0008550FAA0BE0E8FEEF1616170698
:1001A000E807F907C0F012161306E407F50798F000
:1001B000621B730B840B950B39F40A2661F0232B19
:1001C000242B252B21F408950A2609F4A140A69595
:0C01D0008FEF811D811D0895F894FFCF72
:00000001FF
